:020000040800F2
:10000000E8060020DD630008990200089B02000852
:100010009F020008A3020008A702000800000000D9
:10002000000000000000000000000000AB0200081B
:10003000AD02000800000000AF020008B102000895
:10004000F7630008F7630008F7630008F763000828
:10005000F7630008F7630008F7630008F763000818
:10006000F7630008F7630008F7630008F763000808
:10007000F7630008F7630008F7630008F7630008F8
:10008000F7630008F7630008F7630008F7630008E8
:10009000F7630008F7630008F7630008F7630008D8
:1000A000F7630008F7630008F7630008F7630008C8
:1000B000F7630008F7630008F7630008F7630008B8
:1000C000F7630008F7630008F7630008F7630008A8
:1000D000F76300084F630008F7630008F763000840
:1000E000F7630008F7630008F7630008F763000888
:1000F000F7630008F7630008F7630008F763000878
:10010000F7630008F7630008F7630008F763000867
:10011000F7630008F7630008F7630008F763000857
:10012000F7630008F7630008F7630008F763000847
:1001300000F002F800F04CF80AA090E8000C8244AD
:100140008344AAF10107DA4501D100F041F8AFF28A
:10015000090EBAE80F0013F0010F18BFFB1A43F0A5
:10016000010318474CA000006CA00000103A24BF07
:1001700078C878C1FAD8520724BF30C830C144BF0C
:1001800004680C607047000000230024002500264E
:10019000103A28BF78C1FBD8520728BF30C148BFEA
:1001A0000B607047662908F0BA83782906F08087CB
:1001B000002070471FB508F030FB07F0DFFA04009D
:1001C0000020002108F02CF8E0601FBD10B510BD24
:1001D00007F0E4FB1146FFF7EDFF00F009F807F028
:1001E00002FC03B4FFF7F2FF03BC06F057F800006F
:1001F0008AB0482006F004F84FF4165006F05BF879
:1002000000F03CF901F087FE4FF478401749088070
:100210001748828817A107A806F00EFF07AB102227
:10022000CDE900231346C8220A211E2005F0A9FFAC
:100230001AE006A800F046F9069808F045F90446C9
:1002400002460B460EA102A806F0F6FE02AB1022F3
:10025000CDE900231346C82228211E2005F091FF76
:100260004FF4FA7005F0E0FFE3E70000140000200F
:10027000380000204C43442049443A25303458008B
:1002800044697374616E6365286D293A2025312EA7
:100290003366202020000000704700BFFEE700BF4B
:1002A000FEE700BFFEE700BFFEE7704770477047FC
:1002B0007047000000210020674A126842F4803233
:1002C000654B1A6000BF644A126802F40030491C92
:1002D00010B9B1F5A06FF6D15F4A126812F4003F71
:1002E00001D0012000E00020012842D15B4A1268C1
:1002F00042F01002594B1A601A46126822F00302AB
:100300001A601A46126842F002021A60524A526893
:10031000514B5A601A4652685A601A46526842F463
:1003200080625A601A46526822F47C125A601A4659
:10033000526842F4E8125A601A46126842F080721B
:100340001A6000BF444A126812F0007FFAD0424A95
:10035000526822F00302404B5A601A46526842F03B
:1003600002025A6000BF3C4A526802F00C02082A9E
:10037000F9D1704710B5FFF79DFF10BD10B5364895
:10038000006840F00100344908600846406834497C
:1003900008403149486008460068324908402E4903
:1003A00008600846006820F480200860084640681D
:1003B00020F4FE0048604FF41F008860FFF7DAFF6A
:1003C0004FF000602849086010BD10B500210020E2
:1003D0000022214B5B6803F00C0121B1042906D0F7
:1003E000082928D107E0214B214C236027E01F4B2F
:1003F0001F4C236023E0184B5B6803F47010164B0E
:100400005B6803F48032022303EB904022B9194B5E
:100410004343174C23600DE00F4B5B6813F4003F20
:1004200004D0144B4343124C236003E00F4B43436F
:100430000F4C236003E00D4B0D4C236000BF00BF49
:10044000054B5B68C3F303130B4CE15C084B1B6863
:10045000CB40074C236010BD00100240002002403A
:100460000000FFF8FFFFF6FE08ED00E000127A0042
:100470000000002000093D000400002008B5012113
:10048000042006F05AFB4020ADF8000003208DF850
:10049000020010208DF8030069462B4806F09AF8F8
:1004A0004021294806F043F98020ADF800000320E0
:1004B0008DF8020004208DF803006946224806F0FA
:1004C00089F808BD2DE9F041044600252DE0012002
:1004D0001E4908604FF00A0005F0A6FE00201C49E6
:1004E000C1F8980100BF1B4800680028FBD003E05A
:1004F000052005F0B4FE761C164800680028F7D1E8
:100500004FF0AA0106FB01F101EB81014FEA410026
:1005100008F02AF98046394608F002F80746002616
:100520000A2005F081FE681CC5B2082DCFDB4FF014
:100530008241384608F056F88046074908F052F8DC
:100540002060BDE8F08100000008014098012142D0
:10055000000021421C012142002474494FF48071A3
:10056000FF4A516149005161FE4908604FF0800126
:10057000516111614FF40071116170474FF4807146
:10058000F74A116149005161F64908604FF0800156
:10059000516111614FF400711161704710B54FF056
:1005A0008830F1490860F149C1F8040C4FF00000AF
:1005B000EC4908604FF48070E94908614FF400701D
:1005C00048614FF040004861E9488088A0F5094142
:1005D000893902D1022005F042FEE648006884B263
:1005E0004FF04000DE4908614FF4007008614FF0A1
:1005F0003330DE49C1F8000CDF4908604FF6FF7068
:10060000DA49C1F80C0C204610BD10B504460B4663
:100610002046FFF7A3FF4FF48070D14908614000E6
:100620004861D04803604FF08000486108614FF492
:100630000070086110BD10B504462046FFF78EFF1C
:10064000FFF7ACFF10BD00B5C9490889FFF786FF69
:1006500000BD4FF48071C24A116149005161C14926
:1006600008604FF08001516111614FF40071116118
:10067000704730B5014601F01F04C1F34513CA0AA3
:10068000E50205EB43151544A8B230BD00BF0100DB
:10069000A0F10102D0B2FAD1704730B504460D4640
:1006A000B3488088A0F51341413905D0B04880880F
:1006B000A0F5A64110394DD1AD494889FFF74EFF4D
:1006C0004FF48070A6490861400048612012A54996
:1006D00008604FF08000A249486108614FF4007043
:1006E00008614FF4807008614FF400704861E0B217
:1006F0009E49C1F80C0C4FF080009949486108618F
:100700004FF4007008619A498889FFF727FF4FF47A
:10071000807093490861400048612812914908603F
:100720004FF080008E49486108614FF40070086105
:100730004FF4807008614FF400704861E8B2894955
:1007400008604FF080008649486108614FF40070EE
:100750000861E1E186488088A0F5D041043956D18E
:1007600083488079012804D181480088401E001BFD
:1007700084B27F494889FFF7F1FE4FF480707849D1
:100780000861400048612012764908604FF08000FF
:100790007349486108614FF4007008614FF480703C
:1007A00008614FF400704861E0B27049C1F80C0C68
:1007B0004FF080006A49486108614FF40070086199
:1007C0006B498889FFF7CAFE4FF48070644908615D
:1007D000400048612812634908604FF0800060497A
:1007E000486108614FF4007008614FF4807008613F
:1007F0004FF400704861E8B25A4908604FF0800039
:100800005749486108614FF40070086184E1584815
:100810008088A0F5C85163397DD155488079F0BBF7
:1008200053480088401E001B84B251494889FFF795
:1008300095FE4FF480704A490861400048610020ED
:10084000484908604FF080004549486108614FF40D
:10085000007008614FF4807008614FF400704861C7
:100860004FF000004149C1F80C0C4FF080003C49AA
:10087000486108614FF4007008614FF480700861AE
:100880004FF4007048614FEA2420364908604FF069
:1008900080003349486108614FF4007000E012E0C5
:1008A00008614FF4807008614FF400704861E0B255
:1008B0002C4908604FF080002949486108614FF4D5
:1008C0000070086162E02A494889FFF747FE4FF44B
:1008D0008070234908614000486120122149086066
:1008E0004FF080001E49486108614FF400700861B4
:1008F0004FF4807008614FF400704861E0B21B490A
:10090000C1F80C0C4FF080001549486108614FF4A4
:100910000070086100E08CE04FF4807008614FF4D3
:100920000070486112480088A0F101004FEA2020C1
:100930000C4908604FF080000949486108614FF494
:10094000007008614FF4807008614FF400704861D6
:1009500007480088A0F10100C0B2024908600DE01C
:10096000001001400C0C0140000C0140000001404F
:1009700038000020080C0140040C01404FF08000BA
:10098000F949486108614FF400700861F7498889A6
:10099000FFF7E4FD4FF48070F349086140004861BF
:1009A0002812F34908604FF08000EF494861086160
:1009B0004FF4007008614FF4807008614FF40070CC
:1009C0004861E8B2EB49C1F80C0C4FF08000E649F1
:1009D000486108614FF4007008614FF4807008614D
:1009E0004FF400704861E1484088A0F101004FEAEF
:1009F0002020DF4908604FF08000DB494861086132
:100A00004FF4007008614FF4807008614FF400707B
:100A10004861D6484088A0F10100C0B2D4490860BE
:100A20004FF08000D049486108614FF400700861C0
:100A300072E0CE488088A0F5AA41103959D1CB493F
:100A40004889FFF78BFD4FF48070C749086140006B
:100A500048612012C64908604FF08000C2494861D1
:100A600008614FF400700861C049498901F1010132
:100A700088B2FFF773FD4FF48070BB4908614000F6
:100A80004861E0B2BB49C1F80C0C8020B64948610E
:100A9000086180000861B5498889FFF75FFD4FF460
:100AA0008070B1490861400048612812B04908606F
:100AB0004FF08000AC49486108614FF40070086154
:100AC000AA49898901F1010188B2FFF747FD4FF476
:100AD0008070A549086140004861E8B2A4490860F7
:100AE0004FF08000A049486108614FF40070086130
:100AF00012E09E488079012804D19C480088401E5D
:100B0000001B84B2994948892146FFF77EFD974929
:100B100088892946FFF779FD30BD2DE9F04105466A
:100B20000E4692480088A84203DD90484088B042B3
:100B300002DC0020BDE8F08131462846FFF7ADFD1C
:100B40008A488088A0F51341413911D087488088B0
:100B5000A0F5D04104390BD084488088A0F5A64187
:100B6000103905D081488088A0F5C851633903D178
:100B70002E20FFF7F3FC0DE07C488088A0F5AA4109
:100B8000103904D14FF43850FFF7E8FC02E022207E
:100B9000FFF7E4FC4FF08830774908607549C1F8E9
:100BA000040C4FF6FF70724908604FF480706E4974
:100BB00008614FF4007048614FF0400048614FF009
:100BC0000200FFF763FD6B48D0F8080C84B24020A8
:100BD0006549086165488088A0F5C851633910D11E
:100BE0004FF40070604908614FF03330624908608B
:100BF0006049C1F8040C4FF6FF705D49086020465B
:100C000098E74020584948610220FFF73FFD5B48C4
:100C1000006884B24FF0400053490861534880880F
:100C2000A0F5134141390BD050488088A0F5A6416A
:100C3000103905D04D488088A0F5AA41103911D14E
:100C40004020494948610220FFF720FD4B480068D9
:100C50001FFA80F84FF0400043490861E7B24FEABD
:100C600007270CE041488088A0F5D041043906D11F
:100C700040203D49486108614048006884B24FF413
:100C80000070394908614FF033303B4908603949F9
:100C9000C1F8040C4FF6FF70C1F80C0C3348808883
:100CA000A0F51341253917D030488088A0F58A4136
:100CB000353911D02D488088A0F58A4131390BD0C3
:100CC0002A488088A0F50941893905D027488088BD
:100CD000A0F53541053901D120462BE7234880880E
:100CE000A0F5134141390BD020488088A0F5A641DA
:100CF000103905D01D488088A0F5AA41103907D1C8
:100D0000E012C002B91240EA411040EAE82011E7BF
:100D10002046FFF7AEFC0DE700B514488088A0F52B
:100D20001341413911D011488088A0F5D0410439D0
:100D30000BD00E488088A0F5A641103905D00B488D
:100D40008088A0F5C851633903D12920FFF706FC3C
:100D50001BE006488088A0F5AA41103910D14FF455
:100D60002450FFF7FBFB10E000100140380000208A
:100D70000C0C014000000140000C0140080C014037
:100D800040F273110720FFF740FC00BD00B5FF489B
:100D90008088A0F51341413911D0FC488088A0F526
:100DA000D04104390BD0F9488088A0F5A64110390C
:100DB00005D0F6488088A0F5C851633903D12820B2
:100DC000FFF7CCFB0EE0F1488088A0F5AA4110396E
:100DD00004D14FF42050FFF7C1FB03E000210720AE
:100DE000FFF713FC00BDF0B5054600240027E748D7
:100DF000807901280BD1E5488088A0F5D0410439DD
:100E000005D0E2488088A0F5C851633908D1DF4891
:100E10008079F0B9DD488088A0F5C851633918D1D0
:100E2000082D15D2DFE805F00406080A0C0E101292
:100E300006250DE007250BE0042509E0052507E060
:100E4000012505E0002503E0032501E0022500BFA0
:100E500000BFCE488088A0F51341413917D0CB4858
:100E60008088A0F5D041043911D0C8488088A0F509
:100E7000A64110390BD0C5488088A0F5AA41103989
:100E800005D0C2488088A0F5C85163397ED1082DAD
:100E90001CD2DFE805F00406090C0F12151800BF7C
:100EA00014E044F0800411E044F040040EE044F00B
:100EB000C0040BE044F0200408E044F0600405E0C6
:100EC00044F0A00402E044F0E00400BF00BFAF48DB
:100ED0008088A0F5AA41103902D14FF4585700E09C
:100EE0003627AA488088A0F5A64110390DD0A7481A
:100EF0008088A0F5AA41103907D0A4488088A0F5C1
:100F0000C851633901D044F00804A0488088A0F596
:100F1000D041043901D144F0020421463846FFF79C
:100F200074FB9A488088A0F5C85163391DD014F02D
:100F3000200F0DD09548008894494988884214DADA
:100F400092480688408891490880084646800CE00F
:100F50008E4800888D494988884206DD8B4806887E
:100F600040888A4908800846468088488088A0F5DD
:100F7000AA4110397DD185494889FFF7EFFA4FF42E
:100F80008070834908614000486100E06BE1002007
:100F9000804908604FF080007D49486108614FF446
:100FA000007008617949498901F1010188B2FFF7B0
:100FB000D5FA4FF4807076490861400048610020FE
:100FC0007549C1F80C0C80207149486108618000A6
:100FD00008616E494989891C88B2FFF7BFFA4FF44E
:100FE00080706B4908614000486168480088401E75
:100FF0000012684908604FF0800065494861086147
:101000004FF4007008616149498901F1030188B218
:10101000FFF7A4FA4FF480705D4908614000486111
:101020005A480088401EC0B25A4908604FF08000FC
:101030005749486108614FF4007008615349888935
:10104000FFF78CFA4FF48070514908614000486105
:101050000020504908604FF080004D494861086108
:101060004FF4007008614949898901F1010188B292
:1010700000E049E0FFF772FA4FF4807044490861DC
:10108000400048610020434908604FF0800040491B
:10109000486108614FF4007008613C49898901F199
:1010A000020188B2FFF75AFA4FF48070384908619C
:1010B0004000486135484088401E001235490860AC
:1010C0004FF080003249486108614FF400700861B8
:1010D0002E49898901F1030188B2FFF73FFA4FF4E5
:1010E00080702B4908614000486128484088401EB4
:1010F000C0B2284908604FF0800025494861086166
:101100004FF400700861D5E020494889FFF726FABE
:101110004FF480701E4908614000486100201D495D
:1011200008604FF080001A49486108614FF4007070
:1011300008614FF4807008614FF4007048614FF00F
:1011400000001549C1F80C0C4FF0800010494861AF
:1011500008614FF4007008614FF4807008614FF42B
:101160000070486109480088A0F101004FEA202082
:10117000084908604FF080000549486108614FF454
:10118000007008614FF48070086107E038000020AB
:10119000001001400C0C0140000001404FF40070B1
:1011A0004861FF480088A0F10100C0B2FD49086015
:1011B0004FF08000FC49486108614FF400700861FD
:1011C000F7498889FFF7CAF94FF48070F64908613A
:1011D000400048610020F34908604FF08000F24968
:1011E000486108614FF4007008614FF48070086135
:1011F0004FF4007048614FF00000EA4908604FF07A
:101200008000E949486108614FF4007008614FF4BB
:10121000807008614FF400704861E1484088A0F197
:1012200001004FEA2020DF4908604FF08000DE49CE
:10123000486108614FF4007008614FF480700861E4
:101240004FF400704861D6484088A0F10100C0B258
:10125000D44908604FF08000D349486108614FF4D9
:101260000070086126E0082D1CD2DFE805F00407B5
:101270000A0D0F12151844F0300413E044F0100466
:1012800010E044F020040DE000BF0BE044F038040F
:1012900008E044F0280405E044F0180402E044F0BB
:1012A000080400BF00BF032744F480542146384699
:1012B000FFF7ABF9F0BD30B504460D462946204690
:1012C000FFF7EBF9FFF7BFF94FF48070B6490861FB
:1012D00040004861B5480088B24908604FF080007E
:1012E000B149486108614FF40070086130BD70B5C4
:1012F00004460D461646AA488088A0F51341413998
:1013000005D0A7488088A0F5A64110394DD1A44941
:101310004889FFF723F94FF48070A3490861400022
:10132000486120129F4908604FF080009E49486143
:1013300008614FF4007008614FF4807008614FF449
:1013400000704861E0B29A49C1F80C0C4FF080007F
:101350009549486108614FF4007008619049888997
:10136000FFF7FCF84FF480708F4908614000486136
:1013700028128C4908604FF080008B494861086151
:101380004FF4007008614FF4807008614FF40070F2
:101390004861E8B2834908604FF0800082494861A3
:1013A00008614FF4007008617EE17D488088A0F5F7
:1013B000AA41103959D17A494889FFF7CFF84FF43B
:1013C00080707949086140004861201275490860C1
:1013D0004FF080007449486108614FF40070086163
:1013E0006F49498901F1010188B2FFF7B7F84FF45D
:1013F00080706D49086140004861E0B26C49C1F8F5
:101400000C0C8020684948610861800008616449CB
:101410008889FFF7A3F84FF48070634908614000A2
:10142000486128125F4908604FF080005E494861BA
:1014300008614FF4007008615949898901F101017F
:1014400088B2FFF78BF84FF480705749086140006D
:101450004861E8B2534908604FF080005249486142
:1014600008614FF4007008611EE14D488088A0F5C6
:10147000C85163397ED14A48807920B948480088EC
:10148000401E001B84B246494889FFF767F84FF4B5
:101490008070454908614000486120124149086058
:1014A0004FF080004049486108614FF400700861C6
:1014B0004FF4807008614FF400704861E0B23C491D
:1014C000C1F80C0C4FF080003749486108614FF4B7
:1014D000007008614FF4807008614FF4007048613B
:1014E0004FEA24202F4908604FF080002E494861C0
:1014F00008614FF4007008614FF4807008614FF488
:1015000000704861E0B2274908604FF0800026492A
:10151000486108614FF40070086121498889FFF72C
:101520001DF84FF48070204908614000486128127E
:101530001C4908604FF080001B49486108614FF466
:10154000007008614FF4807008614FF400704861CA
:10155000E8B2144908604FF08000134948610861FF
:101560004FF4007008614FF4807008614FF4007010
:10157000486100E028E04FEA25200A4908604FF062
:1015800080000949486108614FF4007008614FF418
:10159000807008614FF400704861E8B2014909E0C9
:1015A000380000200C0C0140001001401400002005
:1015B0000000014008604FF08000F949486108616F
:1015C0004FF4007008616FE0F6488088A0F5D041C4
:1015D000043956D1F3488079012804D1F1480088B4
:1015E000401E001B84B2EF494889FEF7B7FF4FF455
:1015F0008070EB490861400048612012EA490860A8
:101600004FF08000E649486108614FF400700861BE
:101610004FF4807008614FF400704861E0B2E34914
:10162000C1F80C0C4FF08000DD49486108614FF4AF
:1016300000700861DB498889FEF790FF4FF48070E5
:10164000D7490861400048612812D74908604FF027
:101650008000D349486108614FF4007008614FF47D
:10166000807008614FF400704861E8B2CE490860AC
:101670004FF08000CA49486108614FF4007008616A
:1016800012E0C8488079012804D1C6480088401E6D
:10169000001B84B2C34948892146FEF7B6FFC14901
:1016A00088892946FEF7B1FF4FF48070BC49486134
:1016B00040004861BB480089BB4908604FF080008A
:1016C000B749486108614FF4007008614FF48070B9
:1016D00008614FF400704861B448C0F80C6C4FF0DA
:1016E0008000486108614FF40070086170BD2DE909
:1016F000F0418046BE20FEF731FF4FF48070A849CC
:101700000861400048610520A74908604FF080004B
:10171000A349486108614FF4007008614FF480707C
:1017200008614FF400704861404606F0BCFD044675
:101730004FF066329E4B06F0C9FD064606F086FD68
:101740009A49C1F80C0C80209549486108618000D5
:10175000086140100861400048610120924908601A
:101760004FF080008E49486108614FF400700861B5
:101770004FF4807008614FF4007048614FF0FF0033
:10178000894908604FF080008549486108614FF43D
:10179000007008614FF4807008614FF40070486178
:1017A0004FF00000804908604FF080007C4948619C
:1017B00008614FF4007008614FF4807008614FF4C5
:1017C000007048614FF00000774908604FF08000DA
:1017D0007349486108614FF400700861BDE8F08109
:1017E00010B50446A4BB00206E498871F020088023
:1017F0004FF4A070488008468088A0F51341413915
:101800000BD068488088A0F5D041043905D06548E0
:101810008088A0F5A64110391BD12C206149088190
:101820002A2048812B20888108468088A0F5D04155
:10183000043905D05B488088A0F5A641103906D14F
:101840004FF4A070574908804FF4F0704880A2E030
:1018500032E054488088A0F5AA41103910D14FF4E5
:101860003050504908814FF4285048814FF42C5093
:1018700088814FF4F07008804FF4487048808AE007
:1018800048488088A0F5C85163390DD12C204549BE
:1018900008812B2048812A2088814FF4F07008802D
:1018A0004FF44870488076E022203E49088120208D
:1018B0004881212088816EE001203A4988714FF4E7
:1018C000A0700880F020488008468088A0F5134169
:1018D000413905D033488088A0F5A641103907D199
:1018E0002C20304908812A2048812B2088813FE024
:1018F0002C488088A0F5D041043907D12C202949F3
:1019000008812B2048812A20888131E02548808861
:10191000A0F5AA41103910D14FF430502149088167
:101920004FF4285048814FF42C5088814FF4487070
:1019300008804FF4F07048801AE01A488088A0F5BB
:10194000C85163390DD12C20164908812A204881BD
:101950002B2088814FF4487008804FF4F070488045
:1019600006E022200F49088121204881202088811B
:101970000C488088A0F5D041043905D009488088FA
:10198000A0F5A641103906D14FF4F0700549088042
:101990004FF4A07048800020FFF725FA10BD00002A
:1019A00000100140380000200C0C014000000140F4
:1019B000666604402DE9F04F86B004460D46904619
:1019C000994604EB0800401E86B205EB0900401E54
:1019D00087B2FF488088A0F51341413915D0FC48F3
:1019E0008088A0F5A64110390FD0F9488088A0F56D
:1019F000D041043909D0F648807901287ED1F448D5
:101A00008088A0F5C851633978D1F1494889FEF73B
:101A1000A5FD4FF48070EF49086140004861201235
:101A2000ED4908604FF08000EA49486108614FF4D1
:101A3000007008614FF4807008614FF400704861D5
:101A4000E0B2E649C1F80C0C4FF08000E149486172
:101A500008614FF4007008614FF4807008614FF422
:101A6000007048614FEA2620DB4908604FF0800093
:101A7000D849486108614FF4007008614FF48070E4
:101A800008614FF400704861F0B2D34908604FF02C
:101A90008000D049486108614FF400700861CC496A
:101AA0008889FEF75BFD4FF48070CA4908614000E9
:101AB00048612812C84908604FF08000C549486154
:101AC00008614FF4007008614FF4807008614FF4B2
:101AD00000704861E8B2C04908604FF08000BD491D
:101AE000486108614FF4007008614FF4807008612C
:101AF0004FF4007048614FEA272000E01BE0B64930
:101B000008604FF08000B349486108614FF40070ED
:101B100008614FF4807008614FF400704861F8B2BA
:101B2000AD4908604FF08000AA49486108614FF450
:101B300000700861ACE1A6488088A0F5C8516339FF
:101B40007ED1A3480088A0EB0800001B84B205EBFF
:101B50000900401E1FFA80F99D494889FEF7FEFCE6
:101B60004FF480709B4908614000486120129A49F7
:101B700008604FF080009749486108614FF4007099
:101B800008614FF4807008614FF400704861E0B262
:101B90009249C1F80C0C4FF080008E4948610861F1
:101BA0004FF4007008614FF4807008614FF40070CA
:101BB000486104EB0800A0F101004FEA20208649AB
:101BC00008604FF080008349486108614FF400705D
:101BD00008614FF4807008614FF40070486104EBB5
:101BE0000800A0F10100C0B27B4908604FF08000FE
:101BF0007849486108614FF4007008617449888928
:101C0000FEF7ACFC4FF480707249086140004861F7
:101C10002812714908604FF080006E4948610861E0
:101C20004FF4007008614FF4807008614FF4007049
:101C30004861E8B2684908604FF08000654900E0FB
:101C400029E0486108614FF4007008614FF480702A
:101C500008614FF4007048614FEA29205E4908602E
:101C60004FF080005B49486108614FF400700861E3
:101C70004FF4807008614FF40070486109F0FF0074
:101C8000554908604FF080005249486108614FF49F
:101C900000700861FCE04E488088A0F5AA41103928
:101CA0007ED14B494889FEF759FC4FF48070494971
:101CB0000861400048612012474908604FF08000E9
:101CC0004449486108614FF40070086140494989FE
:101CD00001F1010188B2FEF741FC4FF480703D49EB
:101CE000086140004861E0B23C49C1F80C0C80201A
:101CF0003849486108618000086135494989891C73
:101D000088B2FEF72BFC4FF4807032490861400026
:101D100048613012304908604FF080002D49486119
:101D200008614FF4007008612949498901F10301F4
:101D300088B2FEF713FC4FF480702649086140001A
:101D40004861F0B2244908604FF0800021494861A1
:101D500008614FF4007008611D498889FEF7FEFB99
:101D60004FF480701B4908614000486128121A49ED
:101D700008604FF080001749486108614FF4007017
:101D800008611349898901F1010188B2FEF7E6FB78
:101D90004FF480700F49086140004861E8B200E0EC
:101DA00043E00D4908604FF080000A49486108612E
:101DB0004FF4007008610649898901F1020188B277
:101DC000FEF7CCFB4FF4807002490861400007E049
:101DD00038000020001001400C0C014000000140C0
:101DE00048613812FF4908604FF08000FE494861A1
:101DF00008614FF400700861FC49898901F1030111
:101E000088B2FEF7ABFB4FF48070F74908614000E1
:101E10004861F8B2F34908604FF08000F249486128
:101E200008614FF40070086132E0F04880790128C1
:101E30000ED1AA46BB46ED480088801B401E80B2EA
:101E40000190EA480088001B401E80B2009003E029
:101E5000A246B3460195009750200590512004906A
:101E6000522003905320029051460598FEF7CDFB77
:101E700059460498FEF7C9FB01990398FEF7C5FB84
:101E800000990298FEF7C1FB29462046FEF705FCA3
:101E900006B0BDE8F08F70B504460026D34805882B
:101EA00040884543D1488088A0F5D041043916D1F7
:101EB000CE488079012812D10020CC4988712A208F
:101EC00048812B20888100210846FEF7E6FB01208F
:101ED000C64988712B2048812A20888103E000218F
:101EE0000846FEF7DAFBFEF7AEFB002610E04FF4E3
:101EF0008070BD49086140004861BA4804604FF0F5
:101F00008000486108614FF40070086106F1010625
:101F1000AE42ECD370BD08B50121192004F00DFECE
:101F20000121B34804F025FC4FF4F860ADF800003F
:101F300010208DF8030003208DF802006946AA489E
:101F400004F048FB4FF4F861A74804F0EEFB4FF6AD
:101F5000FF70ADF800006946A2480C3804F03AFB67
:101F60004FF6FF719F480C3804F0DFFB322004F07D
:101F70005BF901210020FEF748FB322004F054F900
:101F80000020FEF758FB9949888008468088FF2882
:101F90000ADB08468088A0F57F41FF3904D09348CA
:101FA0008088B0F5134F7ED1D320FEF7D7FAFEF725
:101FB000F5FAFEF7F3FAFEF7F1FA8C498880084645
:101FC00080880006000C8880FEF7E8FA8749898837
:101FD00008438649888008468088A0F51341413926
:101FE00061D0BF20FEF7BAFAFEF7D8FAFEF7D6FAAC
:101FF000FEF7D4FAFEF7D2FA7C498880084680883A
:102000000006000C8880FEF7C9FA784989880843E1
:102010007649888008468088A0F5D04104396BD085
:10202000D420FEF79BFAFEF7B9FAFEF7B7FAFEF7EF
:10203000B5FA6E498880084680880006000C8880C2
:10204000FEF7ACFA694989880843684988800846E0
:102050008088A0F5A64110394ED04FF45A40FEF7C3
:102060007DFAFEF79BFA4FF45B40FEF777FAFEF736
:1020700095FA5E498880084680880006000C8880B2
:102080004FF45C40FEF76AFAFEF788FA57498988F0
:1020900008435649888008468088B0F5004F04D12F
:1020A00045F2105000E027E0888050488088A0F575
:1020B000AA41103920D0A120FEF750FAFEF76EFA9F
:1020C0004A498880FEF76AFA48498880084680882D
:1020D0000006000C8880FEF761FA444989880843AD
:1020E0004249888008468088A0F5AE41613903D115
:1020F00041F663103D4988803C4881883DA004F04A
:102100008FFF3A488088A0F5134141397AD1CF201A
:10211000FEF724FA0020FEF731FAC120FEF72EFA6E
:102120003020FEF72BFAED20FEF718FA6420FEF7B8
:1021300025FA0320FEF722FA1220FEF71FFA81206B
:10214000FEF71CFAE820FEF709FA8520FEF716FADA
:102150001020FEF713FA7A20FEF710FACB20FEF7D4
:10216000FDF93920FEF70AFA2C20FEF707FA0020C5
:10217000FEF704FA3420FEF701FA0220FEF7FEF91A
:10218000F720FEF7EBF92020FEF7F8F9EA20FEF73A
:10219000E5F90020FEF7F2F90020FEF7EFF9C02084
:1021A000FEF7DCF91B20FEF7E9F9C120FEF7D6F9AE
:1021B0000120FEF7E3F9C520FEF7D0F93020FEF745
:1021C000DDF93020FEF7DAF9C720FEF7C7F9B720AE
:1021D000FEF7D4F93620FEF7C1F94820FEF7CEF914
:1021E0003A2010E00C0C01400010014038000020A3
:1021F00000023000204C43442049443A25780D0A1F
:1022000000000000AAE0FEF7A9F95520FEF7B6F994
:10221000B120FEF7A3F90020FEF7B0F91A20FEF76F
:10222000ADF9B620FEF79AF90A20FEF7A7F9A22029
:10223000FEF7A4F9F220FEF791F90020FEF79EF9CF
:102240002620FEF78BF90120FEF798F9E020FEF733
:1022500085F90F20FEF792F92A20FEF78FF9282042
:10226000FEF78CF90820FEF789F90E20FEF786F9B3
:102270000820FEF783F95420FEF780F9A920FEF725
:102280007DF94320FEF77AF90A20FEF777F90F204F
:10229000FEF774F90020FEF771F90020FEF76EF9E1
:1022A0000020FEF76BF90020FEF768F9E120FEF749
:1022B00055F90020FEF762F91520FEF75FF91720A7
:1022C000FEF75CF90720FEF759F91120FEF756F9E1
:1022D0000620FEF753F92B20FEF750F95620FEF7A3
:1022E0004DF93C20FEF74AF90520FEF747F910208A
:1022F000FEF744F90F20FEF741F93F20FEF73EF9C3
:102300003F20FEF73BF90F20FEF738F92B20FEF7B0
:1023100025F90020FEF732F90020FEF72FF9012001
:10232000FEF72CF93F20FEF729F92A20FEF716F9CF
:102330000020FEF723F90020FEF720F90020FEF729
:102340001DF9EF20FEF71AF91120FEF707F97820A2
:1023500003F06AFF2920FEF701F9FDE3FF488088BA
:10236000A0F5D04104397ED11120FEF7F7F81420F2
:1023700003F05AFFD020FEF7F1F80720FEF7FEF831
:102380004220FEF7FBF81D20FEF7F8F8D120FEF7FB
:10239000E5F80020FEF7F2F81A20FEF7EFF8092022
:1023A000FEF7ECF8D220FEF7D9F80120FEF7E6F8A8
:1023B0002220FEF7E3F8C020FEF7D0F81020FEF749
:1023C000DDF83B20FEF7DAF80020FEF7D7F8022010
:1023D000FEF7D4F81120FEF7D1F8C520FEF7BEF8BD
:1023E0000320FEF7CBF8C820FEF7B8F80020FEF770
:1023F000C5F82520FEF7C2F82120FEF7BFF805201A
:10240000FEF7BCF80020FEF7B9F80A20FEF7B6F890
:102410006520FEF7B3F82520FEF7B0F87720FEF729
:10242000ADF85020FEF7AAF80F20FEF7A7F800201D
:10243000FEF7A4F8F820FEF791F80120FEF79EF8C9
:10244000FE20FEF78BF80020FEF798F80220FEF73A
:1024500095F82020FEF782F83620FEF77FF8082056
:10246000FEF78CF800E02AE03A20FEF777F85520D6
:10247000FEF784F82B20FEF771F80020FEF77EF8B7
:102480000020FEF77BF80120FEF778F83F20FEF7EA
:1024900075F82A20FEF762F80020FEF76FF800209A
:1024A000FEF76CF80120FEF769F8DF20FEF766F80A
:1024B000782003F0B9FE2920FEF750F84CE3A74836
:1024C0008088A0F5A64110397ED1ED20FEF746F8B0
:1024D0000120FEF753F8FE20FEF750F8EE20FEF73D
:1024E0003DF8DE20FEF74AF82120FEF747F8F120FC
:1024F000FEF734F80120FEF741F8DF20FEF72EF852
:102500001020FEF73BF8C420FEF728F88F20FEF7D6
:1025100035F8C620FEF722F80020FEF72FF8E2205B
:10252000FEF72CF8E220FEF729F8E220FEF726F865
:10253000BF20FEF713F8AA20FEF720F8B020FEF720
:102540000DF80D20FEF71AF80020FEF717F80D2001
:10255000FEF714F80020FEF711F81120FEF70EF830
:102560000020FEF70BF81920FEF708F80020FEF710
:1025700005F82120FEF702F80020FDF7FFFF2D20CF
:10258000FDF7FCFF0020FDF7F9FF3D20FDF7F6FF0A
:102590000020FDF7F3FF5D20FDF7F0FF0020FDF7C1
:1025A000EDFF5D20FDF7EAFF0020FDF7E7FFB1201A
:1025B000FDF7D4FF8020FDF7E1FF0020FDF7DEFFEF
:1025C0008B20FDF7DBFF00E0FDE30020FDF7D6FFE9
:1025D0009620FDF7D3FF0020FDF7D0FFB220FDF7D6
:1025E000BDFF0020FDF7CAFF0020FDF7C7FF022056
:1025F000FDF7C4FF0020FDF7C1FF0320FDF7BEFF7C
:102600000020FDF7BBFFB320FDF7A8FF0020FDF77A
:10261000B5FF0020FDF7B2FF0020FDF7AFFF00205F
:10262000FDF7ACFF0020FDF7A9FF0020FDF7A6FF96
:102630000020FDF7A3FF0020FDF7A0FF0020FDF71D
:102640009DFF0020FDF79AFF0020FDF797FF002077
:10265000FDF794FF0020FDF791FF0020FDF78EFFAE
:102660000020FDF78BFF0020FDF788FF0020FDF71D
:1026700085FF0020FDF782FF0020FDF77FFF00208F
:10268000FDF77CFF0020FDF779FF0020FDF776FFC6
:102690000020FDF773FF0020FDF770FFB420FDF769
:1026A0005DFF8B20FDF76AFF0020FDF767FF962096
:1026B000FDF764FF0020FDF761FFA120FDF75EFF3D
:1026C0000020FDF75BFFB520FDF748FF0220FDF776
:1026D00055FF0020FDF752FF0320FDF74FFF0020BC
:1026E000FDF74CFF0420FDF749FF0020FDF746FFF2
:1026F000B620FDF733FF0020FDF740FF0020FDF777
:102700003DFFB720FDF72AFF0020FDF737FF00202F
:10271000FDF734FF3F20FDF731FF0020FDF72EFFCE
:102720005E20FDF72BFF0020FDF728FF6420FDF75A
:1027300025FF0020FDF722FF8C20FDF71FFF002062
:10274000FDF71CFFAC20FDF719FF0020FDF716FF79
:10275000DC20FDF713FF002002E00000380000201D
:10276000FDF70CFF7020FDF709FF0020FDF706FFC5
:102770009020FDF703FF0020FDF700FFEB20FDF7A1
:10278000FDFE0020FDF7FAFEDC20FDF7F7FE00203D
:10279000FDF7F4FEB820FDF7E1FE0020FDF7EEFEA8
:1027A0000020FDF7EBFE0020FDF7E8FE0020FDF71E
:1027B000E5FE0020FDF7E2FE0020FDF7DFFE002031
:1027C000FDF7DCFE0020FDF7D9FEBA20FDF7C6FEBE
:1027D0002420FDF7D3FE0020FDF7D0FE0020FDF7FA
:1027E000CDFE0020FDF7CAFEC120FDF7B7FE202078
:1027F000FDF7C4FE0020FDF7C1FE5420FDF7BEFE2C
:102800000020FDF7BBFEFF20FDF7B8FE0020FDF71E
:10281000B5FEC220FDF7A2FE0A20FDF7AFFE0020A4
:10282000FDF7ACFE0420FDF7A9FE0020FDF7A6FE93
:10283000C320FDF793FE3C20FDF7A0FE0020FDF72E
:102840009DFE3A20FDF79AFE0020FDF797FE392005
:10285000FDF794FE0020FDF791FE3720FDF78EFE78
:102860000020FDF78BFE3C20FDF788FE0020FDF7E1
:1028700085FE3620FDF782FE0020FDF77FFE322028
:10288000FDF77CFE0020FDF779FE2F20FDF776FE98
:102890000020FDF773FE2C20FDF770FE0020FDF7F1
:1028A0006DFE2920FDF76AFE0020FDF767FE262059
:1028B000FDF764FE0020FDF761FE2420FDF75EFEBB
:1028C0000020FDF75BFE2420FDF758FE0020FDF7F9
:1028D00055FE2320FDF752FE0020FDF74FFE3C2061
:1028E000FDF74CFE0020FDF749FE3620FDF746FEC1
:1028F0000020FDF743FE3220FDF740FE0020FDF7EB
:102900003DFE2F20FDF73AFE0020FDF737FE2C207C
:10291000FDF734FE0020FDF731FE2920FDF72EFEE5
:102920000020FDF72BFE2620FDF728FE0020FDF7F6
:1029300025FE2420FDF722FE0020FDF71FFE2420A7
:10294000FDF71CFE0020FDF719FE2320FDF716FE03
:102950000020FDF713FEC420FDF700FE6220FDF706
:102960000DFE0020FDF70AFE0520FDF707FE002002
:10297000FDF704FE8420FDF701FE0020FDF7FEFDBB
:10298000F020FDF7FBFD0020FDF7F8FD1820FDF716
:10299000F5FD0020FDF7F2FDA420FDF7EFFD00207E
:1029A000FDF7ECFD1820FDF7E9FD0020FDF7E6FD41
:1029B0005020FDF7E3FD0020FDF7E0FD0C20FDF7C2
:1029C000DDFD0020FDF7DAFD1720FDF7D7FD002023
:1029D000FDF7D4FD9520FDF7D1FD0020FDF7CEFDDC
:1029E000F320FDF7CBFD0020FDF7C8FDE620FDF745
:1029F000C5FD0020FDF7C2FDC520FDF7AFFD32206B
:102A0000FDF7BCFD0020FDF7B9FD4420FDF7B6FD44
:102A10000020FDF7B3FD6520FDF7B0FD0020FDF7B8
:102A2000ADFD7620FDF7AAFD0020FDF7A7FD88206B
:102A3000FDF7A4FD0020FDF7A1FDC620FDF78EFDEA
:102A40002020FDF79BFD0020FDF798FD1720FDF7E6
:102A500095FD0020FDF792FD0120FDF78FFD002080
:102A6000FDF78CFDC720FDF779FD0020FDF786FD01
:102A70000020FDF783FD0020FDF780FD0020FDF71D
:102A80007DFDC820FDF76AFD0020FDF777FD0020E1
:102A9000FDF774FD0020FDF771FD0020FDF76EFDD0
:102AA000C920FDF75BFD0020FDF768FD0020FDF764
:102AB00065FD0020FDF762FD0020FDF75FFD0020B1
:102AC000FDF75CFD0020FDF759FD0020FDF756FDE8
:102AD0000020FDF753FD0020FDF750FD0020FDF71D
:102AE0004DFD0020FDF74AFD0020FDF747FD0020C9
:102AF000FDF744FD0020FDF741FD0020FDF73EFD00
:102B00000020FDF73BFDE020FDF728FD1620FDF736
:102B100035FD0020FDF732FD1C20FDF72FFD0020C4
:102B2000FDF72CFD2120FDF729FD0020FDF726FDF6
:102B30003620FDF723FD0020FDF720FD4620FDF7A0
:102B40001DFD0020FDF71AFD5220FDF717FD0020A6
:102B5000FDF714FD642000E0FEE3FDF70FFD00200B
:102B6000FDF70CFD7A20FDF709FD0020FDF706FDBD
:102B70008B20FDF703FD0020FDF700FD9920FDF7F8
:102B8000FDFC0020FDF7FAFCA820FDF7F7FC002073
:102B9000FDF7F4FCB920FDF7F1FC0020FDF7EEFC99
:102BA000C420FDF7EBFC0020FDF7E8FCCA20FDF790
:102BB000E5FC0020FDF7E2FCD220FDF7DFFC002061
:102BC000FDF7DCFCD920FDF7D9FC0020FDF7D6FC91
:102BD000E020FDF7D3FC0020FDF7D0FCF320FDF74B
:102BE000CDFC0020FDF7CAFCE120FDF7B7FC162064
:102BF000FDF7C4FC0020FDF7C1FC1C20FDF7BEFC66
:102C00000020FDF7BBFC2220FDF7B8FC0020FDF7FB
:102C1000B5FC3620FDF7B2FC0020FDF7AFFC4520E7
:102C2000FDF7ACFC0020FDF7A9FC5220FDF7A6FC47
:102C30000020FDF7A3FC6420FDF7A0FC0020FDF7B9
:102C40009DFC7A20FDF79AFC0020FDF797FC8B2075
:102C5000FDF794FC0020FDF791FC9920FDF78EFC18
:102C60000020FDF78BFCA820FDF788FC0020FDF775
:102C700085FCB920FDF782FC0020FDF77FFCC42015
:102C8000FDF77CFC0020FDF779FCCA20FDF776FCFF
:102C90000020FDF773FCD220FDF770FC0020FDF74B
:102CA0006DFCD820FDF76AFC0020FDF767FCE020F2
:102CB000FDF764FC0020FDF761FCF320FDF75EFCEE
:102CC0000020FDF75BFCE220FDF748FC0520FDF746
:102CD00055FC0020FDF752FC0B20FDF74FFC0020B7
:102CE000FDF74CFC1B20FDF749FC0020FDF746FCDE
:102CF0003420FDF743FC0020FDF740FC4420FDF7A5
:102D00003DFC0020FDF73AFC4F20FDF737FC00208A
:102D1000FDF734FC6120FDF731FC0020FDF72EFCAF
:102D20007920FDF72BFC0020FDF728FC8820FDF71B
:102D300025FC0020FDF722FC9720FDF71FFC00205A
:102D4000FDF71CFCA620FDF719FC0020FDF716FC82
:102D5000B720FDF713FC0020FDF710FCC220FDF7A3
:102D60000DFC0020FDF70AFCC720FDF707FC002042
:102D7000FDF704FCD120FDF701FC0020FDF7FEFB70
:102D8000D620FDF7FBFB0020FDF7F8FBDD20FDF76B
:102D9000F5FB0020FDF7F2FBF320FDF7EFFB002031
:102DA000FDF7ECFBE320FDF7D9FB0520FDF7E6FB83
:102DB0000020FDF7E3FB0A20FDF7E0FB0020FDF714
:102DC000DDFB1C2000E004E3FDF7D8FB0020FDF74D
:102DD000D5FB3320FDF7D2FB0020FDF7CFFB4420CD
:102DE000FDF7CCFB0020FDF7C9FB5020FDF7C6FB2B
:102DF0000020FDF7C3FB6220FDF7C0FB0020FDF7BC
:102E0000BDFB7820FDF7BAFB0020FDF7B7FB88205B
:102E1000FDF7B4FB0020FDF7B1FB9720FDF7AEFBFB
:102E20000020FDF7ABFBA620FDF7A8FB0020FDF777
:102E3000A5FBB720FDF7A2FB0020FDF79FFBC220FA
:102E4000FDF79CFB0020FDF799FBC720FDF796FBE3
:102E50000020FDF793FBD120FDF790FB0020FDF74C
:102E60008DFBD520FDF78AFB0020FDF787FBDD20D9
:102E7000FDF784FB0020FDF781FBF320FDF77EFBCF
:102E80000020FDF77BFBE420FDF768FB0120FDF748
:102E900075FB0020FDF772FB0120FDF76FFB0020A2
:102EA000FDF76CFB0220FDF769FB0020FDF766FBD8
:102EB0002A20FDF763FB0020FDF760FB3C20FDF7B7
:102EC0005DFB0020FDF75AFB4B20FDF757FB002070
:102ED000FDF754FB5D20FDF751FB0020FDF74EFB95
:102EE0007420FDF74BFB0020FDF748FB8420FDF725
:102EF00045FB0020FDF742FB9320FDF73FFB002040
:102F0000FDF73CFBA220FDF739FB0020FDF736FB67
:102F1000B320FDF733FB0020FDF730FBBE20FDF7AB
:102F20002DFB0020FDF72AFBC420FDF727FB002026
:102F3000FDF724FBCD20FDF721FB0020FDF71EFB54
:102F4000D320FDF71BFB0020FDF718FBDD20FDF76C
:102F500015FB0020FDF712FBF320FDF70FFB00200F
:102F6000FDF70CFBE520FDF7F9FA0020FDF706FB65
:102F70000020FDF703FB0020FDF700FB0020FDF71C
:102F8000FDFA0220FDF7FAFA0020FDF7F7FA2920F2
:102F9000FDF7F4FA0020FDF7F1FA3C20FDF7EEFA18
:102FA0000020FDF7EBFA4B20FDF7E8FA0020FDF7D3
:102FB000E5FA5D20FDF7E2FA0020FDF7DFFA742064
:102FC000FDF7DCFA0020FDF7D9FA8420FDF7D6FAE8
:102FD0000020FDF7D3FA9320FDF7D0FA0020FDF78B
:102FE000CDFAA220FDF7CAFA0020FDF7C7FAB320F8
:102FF000FDF7C4FA0020FDF7C1FABE20FDF7BEFAC6
:103000000020FDF7BBFAC420FDF7B8FA0020FDF759
:10301000B5FACD20FDF7B2FA0020FDF7AFFAD320C4
:10302000FDF7ACFA0020FDF7A9FADC20FDF7A6FABF
:103030000020FDF7A3FAF320FDF7A0FA0020FDF72A
:103040009DFAE620FDF78AFA1120FDF797FA002095
:10305000FDF794FA3420FDF791FA0020FDF78EFA7F
:103060005620FDF78BFA0020FDF788FA7620FDF751
:1030700085FA0020FDF782FA7720FDF77FFA00201D
:10308000FDF77CFA6620FDF779FA0020FDF776FA65
:103090008820FDF773FA0020FDF770FA9920FDF7FC
:1030A0006DFA0020FDF76AFABB20FDF767FA0020F1
:1030B000FDF764FA9920FDF761FA0020FDF75EFA4A
:1030C0006620FDF75BFA0020FDF758FA5520FDF762
:1030D00055FA0020FDF752FA5520FDF74FFA00206F
:1030E000FDF74CFA4520FDF749FA0020FDF746FAB6
:1030F0004320FDF743FA0020FDF740FA4420FDF796
:103100003DFA0020FDF73AFAE720FDF727FA3220D2
:10311000FDF734FA0020FDF731FA5520FDF72EFABD
:103120000020FDF72BFA7620FDF728FA0020FDF7A6
:1031300025FA6620FDF722FA0020FDF71FFA672026
:10314000FDF71CFA0020FDF719FA6720FDF716FAC3
:103150000020FDF713FA8720FDF710FA0020FDF795
:103160000DFA9920FDF70AFA0020FDF707FABB20B7
:10317000FDF704FA0020FDF701FA9920FDF7FEF9AA
:103180000020FDF7FBF97720FDF7F8F90020FDF7A7
:10319000F5F94420FDF7F2F90020FDF7EFF956208C
:1031A000FDF7ECF90020FDF7E9F92320FDF7E6F93A
:1031B0000020FDF7E3F93320FDF7E0F90020FDF7EB
:1031C000DDF94520FDF7DAF90020FDF7D7F9E82011
:1031D000FDF7C4F90020FDF7D1F90020FDF7CEF985
:1031E0009920FDF7CBF90020FDF7C8F98720FDF7FE
:1031F000C5F90020FDF7C2F98820FDF7BFF90020CE
:10320000FDF7BCF97720FDF7B9F90020FDF7B6F915
:103210006620FDF7B3F90020FDF7B0F98820FDF72F
:10322000ADF90020FDF7AAF9AA20FDF7A7F90020C3
:10323000FDF7A4F9BB20FDF7A1F90020FDF79EF9E9
:103240009920FDF79BF90020FDF798F96620FDF71E
:1032500095F90020FDF792F95520FDF78FF9002030
:10326000FDF78CF95520FDF789F90020FDF786F967
:103270004420FDF783F90020FDF780F94420FDF795
:103280007DF90020FDF77AF95520FDF777F9002048
:10329000FDF774F9E920FDF761F9AA20FDF76EF951
:1032A0000020FDF76BF90020FDF768F90020FDF71D
:1032B00065F90020FDF752F9AA20FDF75FF9CF204C
:1032C000FDF74CF90020FDF759F90020FDF756F9FC
:1032D0000020FDF753F90020FDF750F90020FDF71D
:1032E0004DF90020FDF74AF90020FDF747F90020CD
:1032F000FDF744F90020FDF741F90020FDF73EF904
:103300000020FDF73BF90020FDF738F90020FDF71C
:1033100035F90020FDF732F90020FDF72FF90020E4
:10332000FDF72CF90020FDF729F9F020FDF716F93B
:103330000020FDF723F95020FDF720F90020FDF7CC
:103340001DF90020FDF71AF90020FDF717F9F32009
:10335000FDF704F9002000E0FEE3FDF70FF9F92086
:10336000FDF7FCF80620FDF709F91020FDF706F936
:103370002920FDF703F90020FDF700F93A20FDF7B9
:10338000EDF85520FDF7FAF81120FDF7E7F8642075
:1033900002F04AFF2920FDF7E1F83520FDF7DEF8BD
:1033A0000020FDF7EBF85120FDF7D8F8FF20FDF7DE
:1033B000E5F85320FDF7D2F82C20FDF7DFF8552073
:1033C000FDF7CCF88220FDF7D9F82C20FDF7C6F8E0
:1033D000C2E3FF488088A0F5AA4110397ED155216B
:1033E0004FF47040FDF711F9AA214FF20100FDF7EB
:1033F0000CF952214FF20200FDF707F908214FF2B4
:103400000300FDF702F901214FF20400FDF7FDF87A
:103410000D214FF43040FDF7F8F80D214BF201007B
:10342000FDF7F3F80D214BF20200FDF7EEF8342121
:103430004FF43640FDF7E9F834214BF20160FDF717
:10344000E4F834214BF20260FDF7DFF80D214FF470
:103450003140FDF7DAF80D214BF20110FDF7D5F8F8
:103460000D214BF20210FDF7D0F834214FF4374014
:10347000FDF7CBF834214BF20170FDF7C6F834218B
:103480004BF20270FDF7C1F800214FF43240FDF716
:10349000BCF800214BF20120FDF7B7F800214BF2F8
:1034A0000220FDF7B2F824214FF43840FDF7ADF8C3
:1034B00024214BF60100FDF7A8F824214BF6020069
:1034C000FDF7A3F801214FF43F40FDF79EF80F21CF
:1034D0004FF43340FDF799F80F2100E0FDE34BF284
:1034E0000130FDF792F80F214BF20230FDF78DF815
:1034F00034214FF43940FDF788F834214BF60110A0
:10350000FDF783F834214BF60210FDF77EF8082111
:103510004FF43540FDF779F808214BF20150FDF7E3
:1035200074F808214BF20250FDF76FF803214FF4B5
:103530004240FDF76AF824214FF43A40FDF765F860
:1035400024214BF60120FDF760F824214BF60220E0
:10355000FDF75BF800214FF43C40FDF756F8782169
:103560004BF60140FDF751F800214BF60240FDF704
:103570004CF800214FF43D40FDF747F878214BF619
:103580000150FDF742F800214BF60250FDF73DF8DF
:1035900000214FF43E40FDF738F864214BF60160FE
:1035A000FDF733F800214FF45140FDF72EF8332199
:1035B0004DF20110FDF729F800214DF20210FDF740
:1035C00024F834214DF20310FDF71FF800214DF2CD
:1035D0000410FDF71AF83A214DF20510FDF715F821
:1035E00000214DF20610FDF710F84A214DF20710A8
:1035F000FDF70BF800214DF20810FDF706F85C21ED
:103600004DF20910FDF701F800214DF20A10FCF708
:10361000FCFF81214DF20B10FCF7F7FF00214DF26A
:103620000C10FCF7F2FFA6214DF20D10FCF7EDFF98
:1036300000214DF20E10FCF7E8FFE5214DF20F10CE
:10364000FCF7E3FF01214DF21010FCF7DEFF132120
:103650004DF21110FCF7D9FF01214DF21210FCF7C9
:10366000D4FF54214DF21310FCF7CFFF01214DF28E
:103670001410FCF7CAFF82214DF21510FCF7C5FFAC
:1036800001214DF21610FCF7C0FFCA214DF21710B0
:10369000FCF7BBFF02214DF21810FCF7B6FF00212A
:1036A0004DF21910FCF7B1FF02214DF21A10FCF790
:1036B000ACFF01214DF21B10FCF7A7FF02214DF2D8
:1036C0001C10FCF7A2FF34214DF21D10FCF79DFFEA
:1036D00002214DF21E10FCF798FF67214DF21F10DA
:1036E000FCF793FF02214DF22010FCF78EFF84219E
:1036F0004DF22110FCF789FF02214DF22210FCF758
:1037000084FFA4214DF22310FCF77FFF02214DF22C
:103710002410FCF77AFFB7214DF22510FCF775FF56
:1037200002214DF22610FCF770FFCF214DF2271039
:10373000FCF76BFF02214DF22810FCF766FFDE213B
:103740004DF22910FCF761FF02214DF22A10FCF71F
:103750005CFFF2214DF22B10FCF757FF02214DF2D6
:103760002C10FCF752FFFE214DF22D10FCF74DFFFF
:1037700003214DF22E10FCF748FF10214DF22F10BF
:10378000FCF743FF03214DF23010FCF73EFF3321DD
:103790004DF23110FCF739FF03214DF23210FCF7E6
:1037A00034FF6D214DF23310FCF72FFF00214FF451
:1037B0005240FCF72AFF33214DF20120FCF725FF90
:1037C00000214DF20220FCF720FF342102E000002E
:1037D000380000204DF20320FCF717FF00214DF2C6
:1037E0000420FCF712FF3A214DF20520FCF70DFFF3
:1037F00000214DF20620FCF708FF4A214DF2072078
:10380000FCF703FF00214DF20820FCF7FEFE5C21CF
:103810004DF20920FCF7F9FE00214DF20A20FCF7D9
:10382000F4FE81214DF20B20FCF7EFFE00214DF25A
:103830000C20FCF7EAFEA6214DF20D20FCF7E5FE78
:1038400000214DF20E20FCF7E0FEE5214DF20F20A5
:10385000FCF7DBFE01214DF21020FCF7D6FE132110
:103860004DF21120FCF7D1FE01214DF21220FCF7A0
:10387000CCFE54214DF21320FCF7C7FE01214DF27E
:103880001420FCF7C2FE82214DF21520FCF7BDFE8C
:1038900001214DF21620FCF7B8FECA214DF2172087
:1038A000FCF7B3FE02214DF21820FCF7AEFE00211A
:1038B0004DF21920FCF7A9FE02214DF21A20FCF767
:1038C000A4FE01214DF21B20FCF79FFE02214DF2C8
:1038D0001C20FCF79AFE34214DF21D20FCF795FECA
:1038E00002214DF21E20FCF790FE67214DF21F20B1
:1038F000FCF78BFE02214DF22020FCF786FE84218E
:103900004DF22120FCF781FE02214DF22220FCF72E
:103910007CFEA4214DF22320FCF777FE02214DF21C
:103920002420FCF772FEB7214DF22520FCF76DFE36
:1039300002214DF22620FCF768FECF214DF2272010
:10394000FCF763FE02214DF22820FCF75EFEDE212B
:103950004DF22920FCF759FE02214DF22A20FCF7F6
:1039600054FEF2214DF22B20FCF74FFE02214DF2C6
:103970002C20FCF74AFEFE214DF22D20FCF745FEDF
:1039800003214DF22E20FCF740FE10214DF22F2096
:10399000FCF73BFE03214DF23020FCF736FE3321CD
:1039A0004DF23120FCF731FE03214DF23220FCF7BD
:1039B0002CFE6D214DF23320FCF727FE00214FF441
:1039C0005340FCF722FE33214DF20130FCF71DFE7F
:1039D00000214DF20230FCF718FE34214DF2033085
:1039E000FCF713FE00214DF20430FCF70EFE3A21E5
:1039F0004DF20530FCF709FE00214DF20630FCF7D0
:103A000004FE4A214DF20730FCF7FFFD00214DF284
:103A10000830FCF7FAFD5C214DF20930FCF7F5FDAA
:103A200000214DF20A30FCF7F0FD81214DF20B3000
:103A3000FCF7EBFD00214DF20C30FCF7E6FDA62172
:103A40004DF20D30FCF7E1FD00214DF20E30FCF798
:103A5000DCFDE5214DF20F30FCF7D7FD01214DF2E1
:103A60001030FCF7D2FD13214DF21130FCF7CDFDE3
:103A700001214DF21230FCF7C8FD54214DF21330F4
:103A8000FCF7C3FD01214DF21430FCF7BEFD82218D
:103A90004DF21530FCF7B9FD01214DF21630FCF75F
:103AA000B4FDCA214DF21730FCF7AFFD02214DF2F3
:103AB0001830FCF7AAFD00214DF21930FCF7A5FDE6
:103AC00002214DF21A30FCF7A0FD01214DF21B300E
:103AD000FCF79BFD02214DF21C30FCF796FD3421D2
:103AE0004DF21D30FCF791FD02214DF21E30FCF726
:103AF0008CFD67214DF21F30FCF787FD02214DF24E
:103B00002030FCF782FD84214DF22130FCF77DFD51
:103B100002214DF22230FCF778FDA4214DF2233032
:103B2000FCF773FD02214DF22430FCF76EFDB72146
:103B30004DF22530FCF769FD02214DF22630FCF7ED
:103B400064FDCF214DF22730FCF75FFD02214DF2DD
:103B50002830FCF75AFD00E0C7E3DE214DF22930A2
:103B6000FCF753FD02214DF22A30FCF74EFDF22105
:103B70004DF22B30FCF749FD02214DF22C30FCF7C1
:103B800044FDFE214DF22D30FCF73FFD03214DF2A7
:103B90002E30FCF73AFD10214DF22F30FCF735FDA9
:103BA00003214DF23030FCF730FD33214DF231303E
:103BB000FCF72BFD03214DF23230FCF726FD6D2181
:103BC0004DF23330FCF721FD00214FF45440FCF757
:103BD0001CFD33214DF20140FCF717FD00214DF291
:103BE0000240FCF712FD34214DF20340FCF70DFDBD
:103BF00000214DF20440FCF708FD3A214DF205404A
:103C0000FCF703FD00214DF20640FCF7FEFC4A21C3
:103C10004DF20740FCF7F9FC00214DF20840FCF79B
:103C2000F4FC5C214DF20940FCF7EFFC00214DF261
:103C30000A40FCF7EAFC81214DF20B40FCF7E5FC61
:103C400000214DF20C40FCF7E0FCA6214DF20D40A6
:103C5000FCF7DBFC00214DF20E40FCF7D6FCE52121
:103C60004DF20F40FCF7D1FC01214DF21040FCF762
:103C7000CCFC13214DF21140FCF7C7FC01214DF2A1
:103C80001240FCF7C2FC54214DF21340FCF7BDFC7E
:103C900001214DF21440FCF7B8FC82214DF2154091
:103CA000FCF7B3FC01214DF21640FCF7AEFCCA2133
:103CB0004DF21740FCF7A9FC02214DF21840FCF729
:103CC000A4FC00214DF21940FCF79FFC02214DF2AB
:103CD0001A40FCF79AFC012100E007E34DF21B407B
:103CE000FCF793FC02214DF21C40FCF78EFC3421C2
:103CF0004DF21D40FCF789FC02214DF21E40FCF7FD
:103D000084FC67214DF21F40FCF77FFC02214DF23D
:103D10002040FCF77AFC84214DF22140FCF775FC31
:103D200002214DF22240FCF770FCA4214DF2234009
:103D3000FCF76BFC02214DF22440FCF766FCB72136
:103D40004DF22540FCF761FC02214DF22640FCF7C4
:103D50005CFCCF214DF22740FCF757FC02214DF2CD
:103D60002840FCF752FCDE214DF22940FCF74DFCC7
:103D700002214DF22A40FCF748FCF2214DF22B4083
:103D8000FCF743FC02214DF22C40FCF73EFCFE21E7
:103D90004DF22D40FCF739FC03214DF22E40FCF78B
:103DA00034FC10214DF22F40FCF72FFC03214DF283
:103DB0003040FCF72AFC33214DF23140FCF725FC62
:103DC00003214DF23240FCF720FC6D214DF23340CF
:103DD000FCF71BFC00214FF45540FCF716FC332187
:103DE0004DF20150FCF711FC00214DF20250FCF79E
:103DF0000CFC34214DF20350FCF707FC00214DF27E
:103E00000450FCF702FC3A214DF20550FCF7FDFB93
:103E100000214DF20650FCF7F8FB4A214DF2075005
:103E2000FCF7F3FB00214DF20850FCF7EEFB5C21A0
:103E30004DF20950FCF7E9FB00214DF20A50FCF766
:103E4000E4FB81214DF20B50FCF7DFFB00214DF22A
:103E50000C50FCF7DAFBA6214DF20D50FCF7D5FB18
:103E600000214DF20E50FCF7D0FBE5214DF20F5032
:103E7000FCF7CBFB01214DF21050FCF7C6FB1321E0
:103E80004DF21150FCF7C1FB01214DF21250FCF72D
:103E9000BCFB54214DF21350FCF7B7FB01214DF24E
:103EA0001450FCF7B2FB82214DF21550FCF7ADFB2C
:103EB00001214DF21650FCF7A8FBCA214DF2175014
:103EC000FCF7A3FB02214DF21850FCF79EFB0021EA
:103ED0004DF21950FCF799FB02214DF21A50FCF7F4
:103EE00094FB01214DF21B50FCF78FFB02214DF298
:103EF0001C50FCF78AFB34214DF21D50FCF785FB6A
:103F000002214DF21E50FCF780FB67214DF21F503D
:103F1000FCF77BFB02214DF22050FCF776FB84215D
:103F20004DF22150FCF771FB02214DF22250FCF7BB
:103F30006CFBA4214DF22350FCF767FB02214DF2EC
:103F40002450FCF762FBB7214DF22550FCF75DFBD6
:103F500002214DF22650FCF758FBCF214DF227509D
:103F6000FCF753FB02214DF22850FCF74EFBDE21FB
:103F70004DF22950FCF749FB02214DF22A50FCF783
:103F800044FBF2214DF22B50FCF73FFB02214DF296
:103F90002C50FCF73AFBFE214DF22D50FCF735FB7F
:103FA00003214DF22E50FCF730FB10214DF22F5023
:103FB000FCF72BFB03214DF23050FCF726FB33219D
:103FC0004DF23150FCF721FB03214DF23250FCF74A
:103FD0001CFB6D214DF23350FCF717FB00214FF411
:103FE0005640FCF712FB33214DF20160FCF70DFB4C
:103FF00000214DF20260FCF708FB34214DF2036012
:10400000FCF703FB00214DF20460FCF7FEFA3A21B5
:104010004DF20560FCF7F9FA00214DF20660FCF75D
:10402000F4FA4A214DF20760FCF7EFFA00214DF255
:104030000860FCF7EAFA5C214DF20960FCF7E5FA4A
:1040400000214DF20A60FCF7E0FA81214DF20B608D
:10405000FCF7DBFA00214DF20C60FCF7D6FAA62142
:104060004DF20D60FCF7D1FA00214DF20E60FCF725
:10407000CCFAE5214DF20F60FCF7C7FA01214DF2B1
:104080001060FCF7C2FA13214DF21160FCF7BDFA83
:1040900001214DF21260FCF7B8FA54214DF2136081
:1040A000FCF7B3FA01214DF21460FCF7AEFA82215D
:1040B0004DF21560FCF7A9FA01214DF21660FCF7EC
:1040C000A4FACA214DF21760FCF79FFA02214DF2C3
:1040D0001860FCF79AFA00214DF21960FCF795FA86
:1040E00002214DF21A60FCF790FA01214DF21B609B
:1040F000FCF78BFA02214DF21C60FCF786FA3421A2
:104100004DF21D60FCF781FA02214DF21E60FCF7B2
:104110007CFA67214DF21F60FCF777FA02214DF21D
:104120002060FCF772FA84214DF22160FCF76DFAF1
:1041300002214DF22260FCF768FAA4214DF22360BF
:10414000FCF763FA02214DF22460FCF75EFAB72116
:104150004DF22560FCF759FA02214DF22660FCF77A
:1041600054FACF214DF22760FCF74FFA02214DF2AD
:104170002860FCF74AFADE214DF22960FCF745FA87
:1041800002214DF22A60FCF740FAF2214DF22B6039
:10419000FCF73BFA02214DF22C60FCF736FAFE21C7
:1041A0004DF22D60FCF731FA03214DF22E60FCF741
:1041B0002CFA10214DF22F60FCF727FA03214DF263
:1041C0003060FCF722FA33214DF23160FCF71DFA22
:1041D00003214DF23260FCF718FA6D214DF2336085
:1041E000FCF713FA55214FF47040FCF70EFAAA21A0
:1041F0004FF20100FCF709FA52214FF20200FCF7DE
:1042000004FA08214FF20300FCF7FFF900214FF2F6
:104210000400FCF7FAF9CC214FF43140FCF7F5F932
:1042200000214BF20110FCF7F0F905214FF4364064
:10423000FCF7EBF970214FF43740FCF7E6F97021F9
:104240004BF20170FCF7E1F901214FF43840FCF723
:10425000DCF903214BF60100FCF7D7F903214BF6FB
:104260000200FCF7D2F903214BF60300FCF7CDF96D
:1042700002214FF43C40FCF7C8F900214BF6014005
:10428000FCF7C3F900214BF60240FCF7BEF9D02140
:104290004FF44940FCF7B9F902214CF60110FCF744
:1042A000B4F950214CF60210FCF7AFF950214CF64E
:1042B0000310FCF7AAF950214CF60410FCF7A5F9FD
:1042C00000214FF45450FCF7A0F955214FF46850E9
:1042D000FCF79BF94FF48850FCF740F9782001F087
:1042E000BEFF4FF42450FCF739F98DE2FF48808877
:1042F000A0F5134125397ED147F6F001E520FCF702
:1043000084F94FF480710120FCF77FF94FF4E061EC
:104310000220FCF77AF941F230010320FCF775F92D
:1043200000210420FCF771F940F202210820FCF77B
:104330006CF900210920FCF768F900210A20FCF73C
:1043400064F900210C20FCF760F900210D20FCF736
:104350005CF900210F20FCF758F900211020FCF730
:1043600054F907211120FCF750F900211220FCF725
:104370004CF900211320FCF748F900210720FCF735
:1043800044F941F290611020FCF73FF940F22721F7
:104390001120FCF73AF99D211220FCF736F94FF471
:1043A000C8511320FCF731F925212920FCF72DF9FC
:1043B0000D212B20FCF729F907213020FCF725F9E6
:1043C00040F203313120FCF720F903213220FCF7C1
:1043D0001CF940F206213520FCF717F90821362098
:1043E000FCF713F940F206413720FCF70EF94FF4C1
:1043F0004171382000E057E0FCF707F90721392028
:10440000FCF703F940F202613C20FCF7FEF80821BA
:104410003D20FCF7FAF800215020FCF7F6F8EF21D8
:104420005120FCF7F2F800215220FCF7EEF840F2A0
:104430003F115320FCF7E9F84FF427416020FCF7C7
:10444000E4F801216120FCF7E0F800216A20FCF784
:10445000DCF800218020FCF7D8F800218120FCF74F
:10446000D4F800218220FCF7D0F800218320FCF74B
:10447000CCF800218420FCF7C8F800218520FCF747
:10448000C4F810219020FCF7C0F84FF4C0619220CE
:10449000FCF7BBF840F233110720FCF7B6F82221F5
:1044A0000020FCF7B2F8AFE190488088A0F51341F6
:1044B00028397ED141F28F01EC20FCF7A6F841F2B9
:1044C0003421EF20FCF7A1F84FF480710120FCF7B4
:1044D0009CF84FF4E0610220FCF797F841F23001BC
:1044E0000320FCF792F800210420FCF78EF840F23C
:1044F00002210820FCF789F800210920FCF785F843
:1045000000210A20FCF781F801210C20FCF77DF83E
:1045100000210D20FCF779F800210F20FCF775F839
:1045200000211020FCF771F807211120FCF76DF82D
:1045300000211220FCF769F800211320FCF765F830
:1045400001210720FCF761F8322001F06DFE41F2F5
:1045500090411020FCF759F840F227211120FCF778
:1045600054F8322001F060FE8A211220FCF74DF849
:10457000322001F059FE4FF4D0511320FCF745F8DA
:1045800006212920FCF741F80D212B20FCF73DF8EE
:10459000322001F049FE00212020FCF736F80021EE
:1045A0002120FCF732F8322001F03EFE00213020BD
:1045B00000E074E0FCF729F840F204613120FCF7D8
:1045C00024F840F205313220FCF71FF80021352095
:1045D000FCF71BF840F609413620FCF716F84FF4BB
:1045E00001713720FCF711F840F201313820FCF757
:1045F0000CF840F207713920FCF707F800213C2045
:10460000FCF703F840F60A213D20FBF7FEFF3220BD
:1046100001F00AFE00215020FBF7F7FFEF215120A7
:10462000FBF7F3FF00215220FBF7EFFF40F23F11B1
:104630005320FBF7EAFF4FF427416020FBF7E5FF2B
:1046400001216120FBF7E1FF00216A20FBF7DDFF7C
:1046500000218020FBF7D9FF00218120FBF7D5FF47
:1046600000218220FBF7D1FF00218320FBF7CDFF43
:1046700000218420FBF7C9FF00218520FBF7C5FF3F
:1046800010219020FBF7C1FF4FF4C0619220FBF78F
:10469000BCFF40F233110720FBF7B7FFB4E013482B
:1046A0008088A0F5134120397DD10846FBF7ADFF86
:1046B0004FF480710120FBF7A8FF4FF4E061022066
:1046C000FBF7A3FF41F230010320FBF79EFF00211F
:1046D0000420FBF79AFF40F202210820FBF795FF28
:1046E00000210920FBF791FF002101E038000020A4
:1046F0000A20FBF78AFF01210C20FBF786FF00212F
:104700000D20FBF782FF00210F20FBF77EFF3220F8
:1047100001F08AFD40F201110720FBF776FF3220FD
:1047200001F082FD4FF486511020FBF76EFF072148
:104730001120FBF76AFF4FF488711220FBF765FF29
:104740004FF430611320FBF760FF00212920FBF7B5
:104750005CFF44F210012B20FBF757FF0021502093
:10476000FBF753FFEF215120FBF74FFF00215220B1
:10477000FBF74BFF40F23F115320FBF746FF4FF48E
:104780001C516020FBF741FF01216120FBF73DFF39
:1047900000216A20FBF739FF00218020FBF735FF5D
:1047A0000021812000E030E0FBF72FFF0021822074
:1047B000FBF72BFF00218320FBF727FF002184203C
:1047C000FBF723FF00218520FBF71FFF102190201E
:1047D000FBF71BFF00219220FBF717FF012193201D
:1047E000FBF713FF4FF488719520FBF70EFF0021B4
:1047F0009720FBF70AFF00219820FBF706FF40F205
:1048000073110720FBF701FFAEE2FF488088A0F597
:10481000134131397DD141F21401E720FBF7F5FE58
:104820004FF480710120FBF7F0FE4FF4007102207D
:10483000FBF7EBFE41F238010320FBF7E6FE40F206
:1048400002210820FBF7E1FE00210920FBF7DDFE35
:1048500000210A20FBF7D9FE00210C20FBF7D5FE32
:1048600000210D20FBF7D1FE00210F20FBF7CDFE2C
:1048700000211020FBF7C9FE07211120FBF7C5FE20
:1048800000211220FBF7C1FE00211320FBF7BDFE23
:10489000C82001F0C9FC41F290611020FBF7B5FE81
:1048A00040F227211120FBF7B0FE322001F0BCFCC2
:1048B0000C211220FBF7A9FE322001F0B5FC4FF4C9
:1048C00000611320FBF7A1FE11212920FBF79DFEBB
:1048D0000B212B20FBF799FE322001F0A5FC0021D3
:1048E0002020FBF792FE40F23F112120FBF78DFEC6
:1048F00000213020FBF789FE4FF483713120FBF754
:1049000084FE00213220FBF780FE4FF40171352038
:1049100000E064E0FBF779FE41F20A613620FBF724
:1049200074FE40F207713720FBF76FFE4FF483717E
:104930003820FBF76AFE40F207713920FBF765FE6D
:1049400040F202413C20FBF760FE40F60F413D2063
:10495000FBF75BFE00215020FBF757FEEF215120B3
:10496000FBF753FE00215220FBF74FFE40F23F11B0
:104970005320FBF74AFE4FF41C516020FBF745FE25
:1049800001216120FBF741FE00216A20FBF73DFE7B
:1049900000218020FBF739FE00218120FBF735FE46
:1049A00000218220FBF731FE00218320FBF72DFE42
:1049B00000218420FBF729FE00218520FBF725FE3E
:1049C00010219020FBF721FE4FF4C0619220FBF7ED
:1049D0001CFE40F233110720FBF717FEC4E18A48A2
:1049E0008088A0F5A84108397ED14FF4807101205C
:1049F000FBF70BFE4FF4E0610220FBF706FE41F2ED
:104A000030010320FBF701FE00210420FBF7FDFD30
:104A100040F207210820FBF7F8FD00210920FBF7F1
:104A2000F4FD00210A20FBF7F0FD00210C20FBF72C
:104A3000ECFD00210D20FBF7E8FD00210F20FBF726
:104A4000E4FD142001F0F0FB41F2B0611020FBF70F
:104A5000DCFD01211120FBF7D8FD01211720FBF718
:104A6000D4FD4FF49C711220FBF7CFFD4FF4006191
:104A70001320FBF7CAFD09212920FBF7C6FD0921F8
:104A80002A20FBF7C2FD0021A420FBF7BEFD002178
:104A90005020FBF7BAFDEF215120FBF7B6FD0021B6
:104AA0005220FBF7B2FD40F23F115320FBF7ADFD62
:104AB0004FF41C516020FBF7A8FD01216120FBF79A
:104AC000A4FD00216A20FBF7A0FD00218020FBF758
:104AD0009CFD00218120FBF798FD00218220FBF73F
:104AE00094FD0021832000E023E0FBF78EFD0021F0
:104AF0008420FBF78AFD00218520FBF786FD13212A
:104B00009020FBF782FD00219220FBF77EFD032120
:104B10009320FBF77AFD4FF488719520FBF775FD24
:104B200040F273110720FBF770FD322001F07CFB8F
:104B30001AE135488088A0F5A851053963D10720CE
:104B4000FBF763FD322001F06FFB4FF48E711220F2
:104B5000FBF75BFD0121A420FBF757FD0F21082087
:104B6000FBF753FD08210A20FBF74FFD08210D201C
:104B7000FBF74BFD40F207713020FBF746FD0721A4
:104B80003120FBF742FD40F203613220FBF73DFD8F
:104B90004FF4E0613320FBF738FD40F2022134206E
:104BA000FBF733FD02213520FBF72FFD41F60F7196
:104BB0003620FBF72AFD40F207713720FBF725FD71
:104BC00000213820FBF721FD00213920FBF71DFDD6
:104BD00040F207713A20FBF718FD00213B20FBF75C
:104BE00014FD07213C20FBF710FD00213D20FBF7C1
:104BF0000CFD322001F018FB01210720FBF705FD19
:104C00000121172002E0B0E038000020FBF7FDFC96
:104C1000322001F009FB4FF4BD511020FBF7F5FCE9
:104C200040F217211120FBF7F0FC4FF48F71122096
:104C3000FBF7EBFC4FF470611320FBF7E6FC00215F
:104C40002A20FBF7E2FC0A212920FBF7DEFC4FF4C7
:104C50009F711220FBF7D9FC00215020FBF7D5FCF7
:104C6000EF215120FBF7D1FC00215220FBF7CDFCB6
:104C700040F23F115320FBF7C8FC4FF41C51602059
:104C8000FBF7C3FC01216120FBF7BFFC00216A2078
:104C9000FBF7BBFC00218020FBF7B7FC0021812043
:104CA000FBF7B3FC00218220FBF7AFFC002183203F
:104CB000FBF7ABFC00218420FBF7A7FC002185203B
:104CC000FBF7A3FC13219020FBF79FFC4FF44071EE
:104CD0009220FBF79AFC05219320FBF796FC00211C
:104CE0009520FBF792FC00219720FBF78EFC00211A
:104CF0009820FBF78AFC4FF480710120FBF785FCBC
:104D00004FF4E0610220FBF780FC41F23801032000
:104D1000FBF77BFC00210420FBF777FC00210C2033
:104D2000FBF773FC00210F20FBF76FFC0021202014
:104D3000FBF76BFC00212120FBF767FC21210720FA
:104D4000FBF763FC142001F06FFA61210720FBF7E9
:104D50005CFC142001F068FA40F273110720FBF7A5
:104D600054FC142001F060FAA3E2FF488088A0F50B
:104D7000354105397DD10846FBF747FC002108463F
:104D8000FBF743FC00210846FBF73FFC00210846E7
:104D9000FBF73BFC0121A420FBF737FC142001F0BA
:104DA00043FA4FF41C516020FBF72FFC40F2022124
:104DB0000820FBF72AFC4FF405713020FBF725FC97
:104DC00043F215713120FBF720FC40F204613220E0
:104DD000FBF71BFC40F616613320FBF716FC42F292
:104DE00011213420FBF711FC4FF4A8513520FBF7BB
:104DF0000CFC48F207513620FBF707FC41F2074153
:104E00003720FBF702FC41F203413820FBF7FDFBA2
:104E100020213920FBF7F9FB1A219020FBF7F5FB45
:104E200000211020FBF7F1FB07211120FBF7EDFB20
:104E300000211220FBF7E9FB00211320FBF7E5FB23
:104E4000142001F0F1F94FF4E6611020FBF7DDFBCF
:104E500040F237111120FBF7D8FB142001F0E4F9E0
:104E60004FF4DC711220FBF7D0FB142001F0DCF9C9
:104E700000E083E04FF470611320FBF7C6FB802154
:104E80002A20FBF7C2FB48212920FBF7BEFB142098
:104E900001F0CAF94FF480710120FBF7B6FB4FF423
:104EA000E0610220FBF7B1FB41F238010320FBF780
:104EB000ACFB40F202210820FBF7A7FB00210A20EF
:104EC000FBF7A3FB00210C20FBF79FFB00210D202B
:104ED000FBF79BFB30210E20FBF797FB00215020B6
:104EE000FBF793FBEF215120FBF78FFB00215220B2
:104EF000FBF78BFB40F23F115320FBF786FB4FF48F
:104F00001C516020FBF781FB01216120FBF77DFB39
:104F100000216A20FBF779FB11219020FBF775FB3C
:104F20004FF4C0619220FBF770FB40F202419320E6
:104F3000FBF76BFB02219420FBF767FB142001F0C9
:104F400073F901210720FBF760FB142001F06CF9D5
:104F500061210720FBF759FB40F273110720FBF793
:104F600054FB00212020FBF750FB00212120FBF700
:104F70004CFB22210020FBF748FB9AE17A4880880D
:104F8000A0F5454105397DD10846FBF73EFB0021E0
:104F90000846FBF73AFB142001F046F900210846C9
:104FA000FBF733FB00210846FBF72FFB00210846E7
:104FB000FBF72BFB00210846FBF727FB0121A42070
:104FC000FBF723FB142001F02FF94FF41C51602054
:104FD000FBF71BFB40F606010820FBF716FB40F22F
:104FE00003713020FBF711FB01213120FBF70DFB92
:104FF00004213220FBF709FB4FF481713320FBF7CA
:1050000004FB4FF440713420FBF7FFFA40F2031128
:105010003520FBF7FAFA1F213620FBF7F6FA40F2AB
:1050200003713720FBF7F1FA01213820FBF7EDFA85
:1050300004213920FBF7E9FA15219020FBF7E5FA66
:105040004FF482611020FBF7E0FA40F24721112073
:10505000FBF7DBFA4FF4DE711220FBF7D6FA4FF4C0
:1050600060611320FBF7D1FA782001F0DDF84FF4EE
:1050700080710120FBF7C9FA4FF400710220FBF7A1
:10508000C4FA00E050E041F230010320FBF7BDFA22
:1050900008210A20FBF7B9FA00210C20FBF7B5FA2A
:1050A00020210E20FBF7B1FA00210F20FBF7ADFA0B
:1050B00000212020FBF7A9FA00212120FBF7A5FA07
:1050C0003D212A20FBF7A1FA142001F0ADF82D2193
:1050D0002920FBF79AFA00215020FBF796FA4DF2AF
:1050E000EF015120FBF791FA00215220FBF78DFAD6
:1050F00040F23F115320FBF788FA00216120FBF7B3
:1051000084FA00216A20FBF780FA4FF44071922064
:10511000FBF77BFA05219320FBF777FA4FF48071B8
:105120000720FBF772FAC4E00F488088A0F5094118
:1051300089397ED101210020FBF767FA4AF6A401E4
:105140000320FBF762FA00210C20FBF75EFA40F621
:105150000C010D20FBF759FA4FF42C510E20FBF7F0
:1051600054FAB0211E2001E038000020FBF74DFA70
:1051700042F63F310120FBF748FA4FF4C0610220AC
:10518000FBF743FA00211020FBF73FFA46F27801C3
:105190001120FBF73AFA00210520FBF736FA00212F
:1051A0000620FBF732FA4EF61C711620FBF72DFA9B
:1051B00003211720FBF729FA40F233210720FBF7E0
:1051C00024FA00210B20FBF720FA00210F20FBF727
:1051D0001CFA00214120FBF718FA00214220FBF7BE
:1051E00014FA00214820FBF710FA40F23F11492041
:1051F000FBF70BFA00214A20FBF707FA00214B20AE
:10520000FBF703FA4FF46F414420FBF7FEF900214E
:105210004520FBF7FAF940F23F114620FBF7F5F97C
:1052200040F207713020FBF7F0F94FF401713120A3
:1052300000E03FE0FBF7E9F94FF401713220FBF7A2
:10524000E4F940F202513320FBF7DFF940F2075155
:105250003420FBF7DAF94FF401713520FBF7D5F96B
:105260004FF401713620FBF7D0F940F2025137209C
:10527000FBF7CBF940F202313A20FBF7C6F940F2D6
:1052800002313B20FBF7C1F900212320FBF7BDF9D8
:1052900000212420FBF7B9F94FF400412520FBF74A
:1052A000B4F900214F20FBF7B0F900214E20FBF7A5
:1052B000ACF9FEE1FF488088A0F58A4131397ED102
:1052C00001210020FBF7A1F90A2000F0ADFF41F217
:1052D00028611020FBF799F90E211220FBF795F9B0
:1052E00040F639211320FBF790F90A2000F09CFFCB
:1052F00040211120FBF789F950211520FBF785F992
:105300000A2000F091FF1E211220FBF77EF90A20EF
:1053100000F08AFF4FF4B1511020FBF776F942F606
:1053200039211320FBF771F90A2000F07DFF4FF4BB
:1053300080710120FBF769F94FF440710220FBF7FF
:1053400064F941F238010320FBF75FF940F20221D2
:105350000820FBF75AF908210A20FBF756F900212B
:105360003020FBF752F940F202413120FBF74DF9B2
:105370004FF483713220FBF748F940F20351332098
:10538000FBF743F94FF482713420FBF73EF940F20A
:1053900001313520FBF739F940F207713620FBF770
:1053A00034F940F205313720FBF72FF94FF4027141
:1053B0003820FBF72AF940F60B71392000E03BE07A
:1053C000FBF723F902214120FBF71FF94FF41C5191
:1053D0006020FBF71AF901216120FBF716F94FF461
:1053E00004719020FBF711F94FF485719220FBF7BF
:1053F0000CF904219320FBF708F94FF48071A020E9
:10540000FBF703F901210720FBF7FFF82121072013
:10541000FBF7FBF823210720FBF7F7F833210720E0
:10542000FBF7F3F840F233110720FBF7EEF8002109
:10543000A020FBF7EAF8EBE39E488088A0F58A41BC
:1054400035397ED130211520FBF7DFF810219A2065
:10545000FBF7DBF820211120FBF7D7F843F22841B6
:105460001020FBF7D2F802211220FBF7CEF841F210
:1054700038011320FBF7C9F8282000F0D5FE1221CF
:105480000846FBF7C2F8282000F0CEFE43F2204188
:105490001020FBF7BAF843F238011320FBF7B5F8F8
:1054A000462000F0C1FE00213020FBF7AEF840F2AC
:1054B00002413120FBF7A9F840F207313220FBF717
:1054C000A4F84FF441713320FBF79FF804213420F6
:1054D000FBF79BF840F201413520FBF796F840F2CC
:1054E00007713620FBF791F840F205313720FBF7C2
:1054F0008CF84FF4C2613820FBF787F84FF4C26193
:105500003920FBF782F84FF480710120FBF77DF81A
:105510004FF440710220FBF778F841F2300103208C
:10552000FBF773F840F608010820FBF76EF8082136
:105530000A20FBF76AF84FF41C516020FBF765F86E
:1055400000E031E001216120FBF75FF84FF49F712B
:105550009020FBF75AF84FF480719220FBF755F832
:105560004FF480719320FBF750F84FF44051A02086
:10557000FBF74BF81021A320FBF747F80121072088
:10558000FBF743F821210720FBF73FF823210720F1
:10559000FBF73BF833210720FBF737F840F23311D4
:1055A0000720FBF732F833E342488088A0F5C85162
:1055B00063397ED1E220FAF7D1FF4FF480703E4983
:1055C0000861400048611D203C4908604FF08000A0
:1055D0003949486108614FF4007008614FF48070E8
:1055E00008614FF4007048614FF002003449C1F87F
:1055F0000C0C4FF080003049486108614FF4007096
:1056000008614FF4807008614FF4007048614FF0FA
:1056100004002A4908604FF080002749486108616A
:105620004FF4007008614FF0640000F018FEE020B5
:10563000FAF794FF4FF480701F49086140004861F9
:1056400001201E4908604FF080001B494861086135
:105650004FF4007008614FF00A0000F0E5FDE02013
:10566000FAF77CFF4FF480701349086140004861ED
:105670000320124908604FF080000F49486108611B
:105680004FF4007008614FF00C0000F0CDFD0120D8
:10569000FAF764FF0A2000F0C7FDE620FAF75EFF84
:1056A0004FF4807004490861400048612F2003498D
:1056B00008E0ADE238000020001001400C0C014071
:1056C0000000014008604FF08000FF494861086118
:1056D0004FF4007008614FF4807008614FF400705F
:1056E00048614FF0FF00F94908604FF08000F6492B
:1056F000486108614FF4007008614FF480700861E0
:105700004FF4007048614FF0FF00F04908604FF01F
:105710008000ED49486108614FF4007008614FF066
:10572000B000FAF71BFF4FF48070E74908614000B2
:1057300048612020E54908604FF08000E249486157
:1057400008614FF4007008614FF4807008614FF4F5
:10575000007048614FF00000DC4908604FF08000A5
:10576000D949486108614FF4007008614FF48070B6
:1057700008614FF4007048614FF00300D34908609E
:105780004FF08000D049486108614FF40070086113
:105790004FF4807008614FF40070486140F21F3090
:1057A000CA4908604FF08000C749486108614FF45A
:1057B000007008614FF4807008614FF40070486118
:1057C0004FF00100C14908604FF08000BE494861B8
:1057D00008614FF4007008614FF4807008614FF465
:1057E0000070486140F2DF10B84908604FF0800057
:1057F000B549486108614FF4007008614FF480704A
:1058000008614FF4007048614FF00000AF49086034
:105810004FF08000AC49486108614FF400700861A6
:105820004FF0B400FAF79AFE4FF48070A649086171
:10583000400048610420A54908604FF08000A2495B
:10584000486108614FF4007008614FF4807008618E
:105850004FF40070486140F21F409C4908604FF0CF
:1058600080009949486108614FF4007008614FF465
:10587000807008614FF4007048614FF00000934958
:1058800008604FF080009049486108614FF4007053
:1058900008614FF4807008614FF4007048614FF068
:1058A0002E008A4908604FF08000874948610861EE
:1058B0004FF4007008614FF4807008614FF400707D
:1058C00048614FF00000814908604FF080007E4938
:1058D000486108614FF4007008614FF480700861FE
:1058E0004FF4007048614FF00000784908604FF0B5
:1058F00080007549486108614FF4007008614FF4F9
:10590000807008614FF4007048614FF000007049EA
:10591000C1F80C0C4FF080006B49486108614FF4EE
:10592000007008614FF4807008614FF400704861A6
:105930004FF00000654908604FF0800062494861FF
:1059400008614FF4007008614FF0B600FAF706FEE8
:105950004FF480705C4908614000486102205B4957
:1059600008604FF080005849486108614FF40070AA
:1059700008614FF4807008614FF4007048614FF483
:105980000370524908604FF080004F494861086138
:105990004FF4007008614FF4807008614FF400709C
:1059A00048614FF00000494908604FF080004649C7
:1059B000486108614FF4007008614FF4807008611D
:1059C0004FF4007048614FF01700404908604FF0F5
:1059D00080003D49486108614FF4007008614FF450
:1059E000807008614FF4007048614FF0150037492E
:1059F00008604FF080003449486108614FF400703E
:105A000008614FF4807008614FF4007048614FF0F6
:105A100000002E4908604FF080002B494861086162
:105A20004FF4007008614FF4807008614FF400700B
:105A300048614FF00000254908604FF0800022497E
:105A4000486108614FF4007008614FF0F000FAF708
:105A500085FD4FF480701C490861400048610320B7
:105A60001A4908604FF080001749486108614FF4F7
:105A7000007008614FF02900FAF770FDD020FAF7A6
:105A80006DFD4FF4807010490861400048610020AE
:105A90000E4908604FF080000B49486108614FF4DF
:105AA000007008614FF0BE00FAF758FD4FF48070A7
:105AB00005490861400048610520044908604FF02D
:105AC00080000149486105E0001001400C0C0140D4
:105AD0000000014008614FF4007008614FF48070CD
